{
  "contractName": "Charity",
  "abi": [
    {
      "constant": true,
      "inputs": [],
      "name": "name",
      "outputs": [
        {
          "name": "",
          "type": "string"
        }
      ],
      "payable": false,
      "stateMutability": "view",
      "type": "function",
      "signature": "0x06fdde03"
    },
    {
      "constant": true,
      "inputs": [
        {
          "name": "",
          "type": "uint256"
        }
      ],
      "name": "campaigns",
      "outputs": [
        {
          "name": "id",
          "type": "uint256"
        },
        {
          "name": "name",
          "type": "string"
        },
        {
          "name": "owner",
          "type": "address"
        },
        {
          "name": "target",
          "type": "uint256"
        },
        {
          "name": "minAmount",
          "type": "uint256"
        },
        {
          "name": "description",
          "type": "string"
        },
        {
          "name": "img",
          "type": "string"
        },
        {
          "name": "balance",
          "type": "uint256"
        },
        {
          "name": "total",
          "type": "uint256"
        },
        {
          "name": "createAt",
          "type": "uint256"
        },
        {
          "name": "endAt",
          "type": "uint256"
        },
        {
          "name": "donateCount",
          "type": "uint256"
        }
      ],
      "payable": false,
      "stateMutability": "view",
      "type": "function",
      "signature": "0x141961bc"
    },
    {
      "constant": true,
      "inputs": [
        {
          "name": "",
          "type": "uint256"
        }
      ],
      "name": "contributions",
      "outputs": [
        {
          "name": "id",
          "type": "uint256"
        },
        {
          "name": "owner",
          "type": "address"
        },
        {
          "name": "campaignId",
          "type": "uint256"
        },
        {
          "name": "amount",
          "type": "uint256"
        },
        {
          "name": "createAt",
          "type": "uint256"
        }
      ],
      "payable": false,
      "stateMutability": "view",
      "type": "function",
      "signature": "0x1cee0700"
    },
    {
      "constant": true,
      "inputs": [
        {
          "name": "",
          "type": "address"
        }
      ],
      "name": "withdrawalApprovers",
      "outputs": [
        {
          "name": "",
          "type": "uint256"
        }
      ],
      "payable": false,
      "stateMutability": "view",
      "type": "function",
      "signature": "0x58fa505d"
    },
    {
      "constant": true,
      "inputs": [],
      "name": "contributionCount",
      "outputs": [
        {
          "name": "",
          "type": "uint256"
        }
      ],
      "payable": false,
      "stateMutability": "view",
      "type": "function",
      "signature": "0x5b18056b"
    },
    {
      "constant": true,
      "inputs": [
        {
          "name": "",
          "type": "uint256"
        }
      ],
      "name": "withdrawals",
      "outputs": [
        {
          "name": "id",
          "type": "uint256"
        },
        {
          "name": "campaignId",
          "type": "uint256"
        },
        {
          "name": "amount",
          "type": "uint256"
        },
        {
          "name": "description",
          "type": "string"
        },
        {
          "name": "approveCount",
          "type": "uint256"
        },
        {
          "name": "isApprove",
          "type": "bool"
        },
        {
          "name": "createAt",
          "type": "uint256"
        },
        {
          "name": "isWithdraw",
          "type": "bool"
        },
        {
          "name": "isCheck",
          "type": "bool"
        }
      ],
      "payable": false,
      "stateMutability": "view",
      "type": "function",
      "signature": "0x5cc07076"
    },
    {
      "constant": true,
      "inputs": [],
      "name": "withdrawalCount",
      "outputs": [
        {
          "name": "",
          "type": "uint256"
        }
      ],
      "payable": false,
      "stateMutability": "view",
      "type": "function",
      "signature": "0x71706cbe"
    },
    {
      "constant": true,
      "inputs": [],
      "name": "campaignCount",
      "outputs": [
        {
          "name": "",
          "type": "uint256"
        }
      ],
      "payable": false,
      "stateMutability": "view",
      "type": "function",
      "signature": "0x7274e30d"
    },
    {
      "constant": true,
      "inputs": [],
      "name": "withdrawalApproverCount",
      "outputs": [
        {
          "name": "",
          "type": "uint256"
        }
      ],
      "payable": false,
      "stateMutability": "view",
      "type": "function",
      "signature": "0x9b576c0b"
    },
    {
      "inputs": [],
      "payable": false,
      "stateMutability": "nonpayable",
      "type": "constructor",
      "signature": "constructor"
    },
    {
      "anonymous": false,
      "inputs": [
        {
          "indexed": false,
          "name": "id",
          "type": "uint256"
        },
        {
          "indexed": false,
          "name": "name",
          "type": "string"
        },
        {
          "indexed": false,
          "name": "owner",
          "type": "address"
        },
        {
          "indexed": false,
          "name": "target",
          "type": "uint256"
        },
        {
          "indexed": false,
          "name": "minAmount",
          "type": "uint256"
        },
        {
          "indexed": false,
          "name": "description",
          "type": "string"
        },
        {
          "indexed": false,
          "name": "img",
          "type": "string"
        },
        {
          "indexed": false,
          "name": "balance",
          "type": "uint256"
        },
        {
          "indexed": false,
          "name": "total",
          "type": "uint256"
        },
        {
          "indexed": false,
          "name": "createAt",
          "type": "uint256"
        },
        {
          "indexed": false,
          "name": "endAt",
          "type": "uint256"
        },
        {
          "indexed": false,
          "name": "donateCount",
          "type": "uint256"
        }
      ],
      "name": "CampaignCreated",
      "type": "event",
      "signature": "0x521a1a8ce2b790b82765a06715c315304b4c33bfcc6a49ccd69f6877765b0449"
    },
    {
      "constant": false,
      "inputs": [
        {
          "name": "_name",
          "type": "string"
        },
        {
          "name": "_target",
          "type": "uint256"
        },
        {
          "name": "_minAmount",
          "type": "uint256"
        },
        {
          "name": "_description",
          "type": "string"
        },
        {
          "name": "_img",
          "type": "string"
        },
        {
          "name": "_end",
          "type": "uint256"
        }
      ],
      "name": "createCampaign",
      "outputs": [],
      "payable": false,
      "stateMutability": "nonpayable",
      "type": "function",
      "signature": "0x4513b750"
    },
    {
      "constant": false,
      "inputs": [
        {
          "name": "_deloyer",
          "type": "address"
        },
        {
          "name": "_id",
          "type": "uint256"
        }
      ],
      "name": "donateCampaign",
      "outputs": [],
      "payable": true,
      "stateMutability": "payable",
      "type": "function",
      "signature": "0x3cdba326"
    },
    {
      "constant": false,
      "inputs": [
        {
          "name": "_id",
          "type": "uint256"
        },
        {
          "name": "_amount",
          "type": "uint256"
        },
        {
          "name": "_description",
          "type": "string"
        }
      ],
      "name": "createWithdrawal",
      "outputs": [],
      "payable": false,
      "stateMutability": "nonpayable",
      "type": "function",
      "signature": "0xa18ea36d"
    },
    {
      "constant": false,
      "inputs": [
        {
          "name": "_id",
          "type": "uint256"
        }
      ],
      "name": "approveWithdrawal",
      "outputs": [],
      "payable": false,
      "stateMutability": "nonpayable",
      "type": "function",
      "signature": "0x9eceddea"
    },
    {
      "constant": false,
      "inputs": [
        {
          "name": "_id",
          "type": "uint256"
        }
      ],
      "name": "getWithdrawal",
      "outputs": [],
      "payable": false,
      "stateMutability": "nonpayable",
      "type": "function",
      "signature": "0x8a4fb16a"
    },
    {
      "constant": false,
      "inputs": [
        {
          "name": "_id",
          "type": "uint256"
        }
      ],
      "name": "confirmWithdrawal",
      "outputs": [],
      "payable": true,
      "stateMutability": "payable",
      "type": "function",
      "signature": "0xf3b38690"
    }
  ],
  "bytecode": "0x608060405260006001556000600255600060035560006004553480156200002557600080fd5b506040805190810160405280601e81526020017f2743686172697479206f6e20776562203327206973206465706c6f796564000081525060009080519060200190620000739291906200007a565b5062000129565b828054600181600116156101000203166002900490600052602060002090601f016020900481019282601f10620000bd57805160ff1916838001178555620000ee565b82800160010185558215620000ee579182015b82811115620000ed578251825591602001919060010190620000d0565b5b509050620000fd919062000101565b5090565b6200012691905b808211156200012257600081600090555060010162000108565b5090565b90565b611add80620001396000396000f3fe6080604052600436106100db576000357c0100000000000000000000000000000000000000000000000000000000900463ffffffff16806306fdde03146100e0578063141961bc146101705780631cee0700146103675780633cdba326146103fe5780634513b7501461044c57806358fa505d146106605780635b18056b146106c55780635cc07076146106f057806371706cbe146107e85780637274e30d146108135780638a4fb16a1461083e5780639b576c0b146108795780639eceddea146108a4578063a18ea36d146108df578063f3b38690146109bb575b600080fd5b3480156100ec57600080fd5b506100f56109e9565b6040518080602001828103825283818151815260200191508051906020019080838360005b8381101561013557808201518184015260208101905061011a565b50505050905090810190601f1680156101625780820380516001836020036101000a031916815260200191505b509250505060405180910390f35b34801561017c57600080fd5b506101a96004803603602081101561019357600080fd5b8101908080359060200190929190505050610a87565b604051808d8152602001806020018c73ffffffffffffffffffffffffffffffffffffffff1673ffffffffffffffffffffffffffffffffffffffff1681526020018b81526020018a8152602001806020018060200189815260200188815260200187815260200186815260200185815260200184810384528f818151815260200191508051906020019080838360005b83811015610253578082015181840152602081019050610238565b50505050905090810190601f1680156102805780820380516001836020036101000a031916815260200191505b5084810383528b818151815260200191508051906020019080838360005b838110156102b957808201518184015260208101905061029e565b50505050905090810190601f1680156102e65780820380516001836020036101000a031916815260200191505b5084810382528a818151815260200191508051906020019080838360005b8381101561031f578082015181840152602081019050610304565b50505050905090810190601f16801561034c5780820380516001836020036101000a031916815260200191505b509f5050505050505050505050505050505060405180910390f35b34801561037357600080fd5b506103a06004803603602081101561038a57600080fd5b8101908080359060200190929190505050610ccf565b604051808681526020018573ffffffffffffffffffffffffffffffffffffffff1673ffffffffffffffffffffffffffffffffffffffff1681526020018481526020018381526020018281526020019550505050505060405180910390f35b61044a6004803603604081101561041457600080fd5b81019080803573ffffffffffffffffffffffffffffffffffffffff16906020019092919080359060200190929190505050610d25565b005b34801561045857600080fd5b5061065e600480360360c081101561046f57600080fd5b810190808035906020019064010000000081111561048c57600080fd5b82018360208201111561049e57600080fd5b803590602001918460018302840111640100000000831117156104c057600080fd5b91908080601f016020809104026020016040519081016040528093929190818152602001838380828437600081840152601f19601f82011690508083019250505050505050919291929080359060200190929190803590602001909291908035906020019064010000000081111561053757600080fd5b82018360208201111561054957600080fd5b8035906020019184600183028401116401000000008311171561056b57600080fd5b91908080601f016020809104026020016040519081016040528093929190818152602001838380828437600081840152601f19601f820116905080830192505050505050509192919290803590602001906401000000008111156105ce57600080fd5b8201836020820111156105e057600080fd5b8035906020019184600183028401116401000000008311171561060257600080fd5b91908080601f016020809104026020016040519081016040528093929190818152602001838380828437600081840152601f19601f82011690508083019250505050505050919291929080359060200190929190505050610f8b565b005b34801561066c57600080fd5b506106af6004803603602081101561068357600080fd5b81019080803573ffffffffffffffffffffffffffffffffffffffff169060200190929190505050611376565b6040518082815260200191505060405180910390f35b3480156106d157600080fd5b506106da61138e565b6040518082815260200191505060405180910390f35b3480156106fc57600080fd5b506107296004803603602081101561071357600080fd5b8101908080359060200190929190505050611394565b604051808a815260200189815260200188815260200180602001878152602001861515151581526020018581526020018415151515815260200183151515158152602001828103825288818151815260200191508051906020019080838360005b838110156107a557808201518184015260208101905061078a565b50505050905090810190601f1680156107d25780820380516001836020036101000a031916815260200191505b509a505050505050505050505060405180910390f35b3480156107f457600080fd5b506107fd6114a1565b6040518082815260200191505060405180910390f35b34801561081f57600080fd5b506108286114a7565b6040518082815260200191505060405180910390f35b34801561084a57600080fd5b506108776004803603602081101561086157600080fd5b81019080803590602001909291905050506114ad565b005b34801561088557600080fd5b5061088e61153c565b6040518082815260200191505060405180910390f35b3480156108b057600080fd5b506108dd600480360360208110156108c757600080fd5b8101908080359060200190929190505050611542565b005b3480156108eb57600080fd5b506109b96004803603606081101561090257600080fd5b8101908080359060200190929190803590602001909291908035906020019064010000000081111561093357600080fd5b82018360208201111561094557600080fd5b8035906020019184600183028401116401000000008311171561096757600080fd5b91908080601f016020809104026020016040519081016040528093929190818152602001838380828437600081840152601f19601f820116905080830192505050505050509192919290505050611707565b005b6109e7600480360360208110156109d157600080fd5b81019080803590602001909291905050506118e7565b005b60008054600181600116156101000203166002900480601f016020809104026020016040519081016040528092919081815260200182805460018160011615610100020316600290048015610a7f5780601f10610a5457610100808354040283529160200191610a7f565b820191906000526020600020905b815481529060010190602001808311610a6257829003601f168201915b505050505081565b6005602052806000526040600020600091509050806000015490806001018054600181600116156101000203166002900480601f016020809104026020016040519081016040528092919081815260200182805460018160011615610100020316600290048015610b395780601f10610b0e57610100808354040283529160200191610b39565b820191906000526020600020905b815481529060010190602001808311610b1c57829003601f168201915b5050505050908060020160009054906101000a900473ffffffffffffffffffffffffffffffffffffffff1690806003015490806004015490806005018054600181600116156101000203166002900480601f016020809104026020016040519081016040528092919081815260200182805460018160011615610100020316600290048015610c095780601f10610bde57610100808354040283529160200191610c09565b820191906000526020600020905b815481529060010190602001808311610bec57829003601f168201915b505050505090806006018054600181600116156101000203166002900480601f016020809104026020016040519081016040528092919081815260200182805460018160011615610100020316600290048015610ca75780601f10610c7c57610100808354040283529160200191610ca7565b820191906000526020600020905b815481529060010190602001808311610c8a57829003601f168201915b50505050509080600701549080600801549080600901549080600a01549080600b015490508c565b60066020528060005260406000206000915090508060000154908060010160009054906101000a900473ffffffffffffffffffffffffffffffffffffffff16908060020154908060030154908060040154905085565b600060056000838152602001908152602001600020905060008160000154118015610d565750600154816000015411155b1515610d6157600080fd5b80600401543410151515610d7457600080fd5b34816007015401816007018190555034816008015401816008018190555060008090506000600190505b60025481111515610e4857826000015460066000838152602001908152602001600020600201541415610e3b573373ffffffffffffffffffffffffffffffffffffffff166006600083815260200190815260200160002060010160009054906101000a900473ffffffffffffffffffffffffffffffffffffffff1673ffffffffffffffffffffffffffffffffffffffff161415610e3a57600191505b5b8080600101915050610d9e565b50801515610e655781600b01600081548092919060010191905055505b60026000815480929190600101919050555060a06040519081016040528060025481526020013373ffffffffffffffffffffffffffffffffffffffff168152602001848152602001348152602001428152506006600060025481526020019081526020016000206000820151816000015560208201518160010160006101000a81548173ffffffffffffffffffffffffffffffffffffffff021916908373ffffffffffffffffffffffffffffffffffffffff1602179055506040820151816002015560608201518160030155608082015181600401559050508373ffffffffffffffffffffffffffffffffffffffff166108fc349081150290604051600060405180830381858888f19350505050158015610f84573d6000803e3d6000fd5b5050505050565b60008651111515610f9b57600080fd5b600085111515610faa57600080fd5b600084111515610fb957600080fd5b8484101515610fc757600080fd5b60008351111515610fd757600080fd5b60008251111515610fe757600080fd5b600081111515610ff657600080fd5b6001600081548092919060010191905055506101806040519081016040528060015481526020018781526020013373ffffffffffffffffffffffffffffffffffffffff168152602001868152602001858152602001848152602001838152602001600081526020016000815260200142815260200182815260200160008152506005600060015481526020019081526020016000206000820151816000015560208201518160010190805190602001906110b1929190611a0c565b5060408201518160020160006101000a81548173ffffffffffffffffffffffffffffffffffffffff021916908373ffffffffffffffffffffffffffffffffffffffff160217905550606082015181600301556080820151816004015560a0820151816005019080519060200190611129929190611a0c565b5060c0820151816006019080519060200190611146929190611a0c565b5060e082015181600701556101008201518160080155610120820151816009015561014082015181600a015561016082015181600b01559050507f521a1a8ce2b790b82765a06715c315304b4c33bfcc6a49ccd69f6877765b0449600154873388888888600080428b6000604051808d8152602001806020018c73ffffffffffffffffffffffffffffffffffffffff1673ffffffffffffffffffffffffffffffffffffffff1681526020018b81526020018a8152602001806020018060200189815260200188815260200187815260200186815260200185815260200184810384528f818151815260200191508051906020019080838360005b8381101561125b578082015181840152602081019050611240565b50505050905090810190601f1680156112885780820380516001836020036101000a031916815260200191505b5084810383528b818151815260200191508051906020019080838360005b838110156112c15780820151818401526020810190506112a6565b50505050905090810190601f1680156112ee5780820380516001836020036101000a031916815260200191505b5084810382528a818151815260200191508051906020019080838360005b8381101561132757808201518184015260208101905061130c565b50505050905090810190601f1680156113545780820380516001836020036101000a031916815260200191505b509f5050505050505050505050505050505060405180910390a1505050505050565b60086020528060005260406000206000915090505481565b60025481565b6007602052806000526040600020600091509050806000015490806001015490806002015490806003018054600181600116156101000203166002900480601f0160208091040260200160405190810160405280929190818152602001828054600181600116156101000203166002900480156114525780601f1061142757610100808354040283529160200191611452565b820191906000526020600020905b81548152906001019060200180831161143557829003601f168201915b5050505050908060040154908060050160009054906101000a900460ff16908060060154908060070160009054906101000a900460ff16908060070160019054906101000a900460ff16905089565b60035481565b60015481565b6000811115156114bc57600080fd5b6000600760008381526020019081526020016000209050600115158160050160009054906101000a900460ff1615151415156114f757600080fd5b600015158160070160009054906101000a900460ff16151514151561151b57600080fd5b60018160070160006101000a81548160ff0219169083151502179055505050565b60045481565b60008111151561155157600080fd5b60006007600083815260200190815260200160002090506000600560008360010154815260200190815260200160002090506000809050600082600b015490506000600190505b6002548111151561164257846001015460066000838152602001908152602001600020600201541415611635573373ffffffffffffffffffffffffffffffffffffffff166006600083815260200190815260200160002060010160009054906101000a900473ffffffffffffffffffffffffffffffffffffffff1673ffffffffffffffffffffffffffffffffffffffff16141561163457600192505b5b8080600101915050611598565b506001151582151514151561165657600080fd5b83600401600081548092919060010191905055506004600081548092919060010191905055508360000154600860003373ffffffffffffffffffffffffffffffffffffffff1673ffffffffffffffffffffffffffffffffffffffff1681526020019081526020016000208190555060006002828115156116d257fe5b04905084600401548110156116ff5760018560050160006101000a81548160ff0219169083151502179055505b505050505050565b60008311151561171657600080fd5b60006005600085815260200190815260200160002090503373ffffffffffffffffffffffffffffffffffffffff168160020160009054906101000a900473ffffffffffffffffffffffffffffffffffffffff1673ffffffffffffffffffffffffffffffffffffffff1614151561178b57600080fd5b8060070154831115801561179f5750600083115b15156117aa57600080fd5b600082511115156117ba57600080fd5b60036000815480929190600101919050555061012060405190810160405280600354815260200185815260200184815260200183815260200160008152602001600015158152602001428152602001600015158152602001600015158152506007600060035481526020019081526020016000206000820151816000015560208201518160010155604082015181600201556060820151816003019080519060200190611868929190611a0c565b506080820151816004015560a08201518160050160006101000a81548160ff02191690831515021790555060c0820151816006015560e08201518160070160006101000a81548160ff0219169083151502179055506101008201518160070160016101000a81548160ff02191690831515021790555090505050505050565b6000811115156118f657600080fd5b6000600760008381526020019081526020016000209050600060056000836001015481526020019081526020016000209050600115158260050160009054906101000a900460ff16151514151561194c57600080fd5b600115158260070160009054906101000a900460ff16151514151561197057600080fd5b60018260070160016101000a81548160ff0219169083151502179055508060020160009054906101000a900473ffffffffffffffffffffffffffffffffffffffff1673ffffffffffffffffffffffffffffffffffffffff166108fc349081150290604051600060405180830381858888f193505050501580156119f7573d6000803e3d6000fd5b50348160070154038160070181905550505050565b828054600181600116156101000203166002900490600052602060002090601f016020900481019282601f10611a4d57805160ff1916838001178555611a7b565b82800160010185558215611a7b579182015b82811115611a7a578251825591602001919060010190611a5f565b5b509050611a889190611a8c565b5090565b611aae91905b80821115611aaa576000816000905550600101611a92565b5090565b9056fea165627a7a723058208b1ffb3716f02e0e8f251370ca0f91c9a5b1cc61d51c922db92eb0d1982202da0029",
  "source": "pragma solidity ^0.5.0;\r\n\r\ncontract Charity {\r\n    string public name;\r\n    uint public campaignCount = 0;\r\n    uint public contributionCount = 0;\r\n    uint public withdrawalCount = 0;\r\n    uint public withdrawalApproverCount = 0;\r\n    mapping(uint => Campaign) public campaigns;\r\n    mapping(uint => Contribution) public contributions;\r\n    mapping(uint => Withdrawal) public withdrawals;\r\n    mapping(address => uint) public withdrawalApprovers;\r\n\r\n    struct Campaign {\r\n        uint id;\r\n        string name;\r\n        address payable owner;\r\n        uint target;\r\n        uint minAmount;\r\n        string description;\r\n        string img;\r\n        uint balance;\r\n        uint total;\r\n        uint createAt;\r\n        uint endAt;\r\n        uint donateCount;\r\n    }\r\n\r\n    struct Contribution {\r\n        uint id;\r\n        address owner;\r\n        uint campaignId;\r\n        uint amount;\r\n        uint createAt;\r\n    }\r\n\r\n    struct Withdrawal {\r\n        uint id;\r\n        uint campaignId;\r\n        uint amount;\r\n        string description;\r\n        uint approveCount;\r\n        bool isApprove;\r\n        uint createAt;\r\n        bool isWithdraw;\r\n        bool isCheck;\r\n    }\r\n\r\n    event CampaignCreated(\r\n        uint id,\r\n        string name,\r\n        address payable owner,\r\n        uint target,\r\n        uint minAmount,\r\n        string description,\r\n        string img,\r\n        uint balance,\r\n        uint total,\r\n        uint createAt,\r\n        uint endAt,\r\n        uint donateCount\r\n    );\r\n\r\n    constructor() public {\r\n        name = \"'Charity on web 3' is deployed\";\r\n    }\r\n\r\n    function createCampaign(string memory _name, uint _target, uint _minAmount, string memory _description, string memory _img, uint _end) public {\r\n        //require a valid name\r\n        require(bytes(_name).length > 0);\r\n        \r\n        //require a valid target\r\n        require(_target > 0);\r\n\r\n        //require a valid min amount\r\n        require(_minAmount > 0);\r\n        require(_minAmount < _target);\r\n\r\n        //require a valid description\r\n        require(bytes(_description).length > 0);\r\n\r\n        //require a valid img\r\n        require(bytes(_img).length > 0);\r\n\r\n        //require a valid end time\r\n        require(_end > 0);\r\n\r\n        //increment campaign count\r\n        campaignCount++;\r\n\r\n        //create campaignCount\r\n        campaigns[campaignCount] = Campaign(campaignCount, _name, msg.sender, _target, _minAmount, _description, _img, 0, 0, now, _end, 0);\r\n\r\n        //trigger an event\r\n        emit CampaignCreated(campaignCount, _name, msg.sender, _target, _minAmount, _description, _img, 0, 0,now, _end, 0);\r\n    }\r\n\r\n    function donateCampaign(address payable _deloyer, uint _id) public payable {\r\n        Campaign storage _campaign = campaigns[_id];\r\n\r\n        //make sure the campaign has a valid id\r\n        require(_campaign.id > 0 && _campaign.id <= campaignCount);\r\n\r\n        //make sure the msg.value >= minAmount\r\n        require(msg.value >= _campaign.minAmount);\r\n        \r\n        //increase balance\r\n        _campaign.balance = _campaign.balance + msg.value;\r\n        _campaign.total = _campaign.total + msg.value;\r\n\r\n        //increase donateCount\r\n        bool checkContributor = false;\r\n        for(uint i = 1; i <= contributionCount; i++) {\r\n            if(contributions[i].campaignId == _campaign.id) {\r\n                //campaignContributors++;\r\n                if(contributions[i].owner == msg.sender) {\r\n                    checkContributor = true;\r\n                }\r\n            }\r\n        }\r\n        if(!checkContributor) {\r\n            _campaign.donateCount++;\r\n        }\r\n\r\n        //_campaign.contributorCount ++;\r\n        //_campaign.contributors[_campaign.contributorCount] = Contributor(_campaign.contributorCount, msg.sender, msg.value, now);\r\n        //add new contribution\r\n        contributionCount++;\r\n        contributions[contributionCount] = Contribution(contributionCount, msg.sender, _id, msg.value, now);\r\n        \r\n        //transfer coins\r\n        _deloyer.transfer(msg.value);\r\n    }\r\n\r\n    function createWithdrawal(uint _id, uint _amount, string memory _description) public {\r\n        //require id > 0\r\n        require(_id > 0);\r\n\r\n        Campaign storage _campaign = campaigns[_id];\r\n\r\n        //require owner = owner\r\n        require(_campaign.owner == msg.sender);\r\n\r\n        //require amount <= amount\r\n        require(_amount <= _campaign.balance && _amount > 0);\r\n\r\n        //require a valid description\r\n        require(bytes(_description).length > 0);\r\n\r\n        //increse withdrawalCount\r\n        withdrawalCount++;\r\n\r\n        //mapping(address => uint) storage empty;\r\n        //add withdrawal\r\n        withdrawals[withdrawalCount] = Withdrawal(withdrawalCount, _id, _amount, _description, 0, false, now, false, false);\r\n    }\r\n\r\n    function approveWithdrawal(uint _id) public {\r\n        //require id > 0\r\n        require(_id > 0);\r\n        Withdrawal storage withdrawal = withdrawals[_id];\r\n        Campaign storage _campaign = campaigns[withdrawal.campaignId];\r\n\r\n        //require sender is contributor\r\n        bool checkContributor = false;\r\n        uint campaignContributors = _campaign.donateCount;\r\n        for(uint i = 1; i <= contributionCount; i++) {\r\n            if(contributions[i].campaignId == withdrawal.campaignId) {\r\n                //campaignContributors++;\r\n                if(contributions[i].owner == msg.sender) {\r\n                    checkContributor = true;\r\n                }\r\n            }\r\n        }\r\n        require(checkContributor == true);\r\n\r\n        //increase approveCount\r\n        withdrawal.approveCount++;\r\n\r\n        //increase withdrawalApproverCount\r\n        withdrawalApproverCount++;\r\n\r\n        //add to withdrawalApprovers\r\n        withdrawalApprovers[msg.sender] = withdrawal.id;\r\n\r\n        //get half of contributors\r\n        uint halfContributors = campaignContributors / 2;\r\n\r\n        //update isApprove\r\n        if(halfContributors < withdrawal.approveCount) {\r\n            withdrawal.isApprove = true;\r\n        }\r\n    }\r\n\r\n    function getWithdrawal(uint _id) public {\r\n        //require id > 0\r\n        require(_id > 0);\r\n        Withdrawal storage withdrawal = withdrawals[_id];\r\n        //Campaign storage campaign = campaigns[withdrawal.campaignId];\r\n\r\n        //require isApprove == true\r\n        require(withdrawal.isApprove == true);\r\n\r\n        //require isWithdraw == false\r\n        require(withdrawal.isWithdraw == false);\r\n\r\n        //update iswithdrawal\r\n        withdrawal.isWithdraw = true;\r\n    }\r\n\r\n    function confirmWithdrawal(uint _id) public payable {\r\n        //require id > 0\r\n        require(_id > 0);\r\n        Withdrawal storage withdrawal = withdrawals[_id];\r\n        Campaign storage campaign = campaigns[withdrawal.campaignId];\r\n\r\n        //require isApprove == true\r\n        require(withdrawal.isApprove == true);\r\n\r\n        //require isWithdraw == true\r\n        require(withdrawal.isWithdraw == true);\r\n\r\n        //isCheck == true\r\n        withdrawal.isCheck = true;\r\n\r\n        //transfer coins\r\n        campaign.owner.transfer(msg.value);\r\n\r\n        //update balance\r\n        campaign.balance = campaign.balance - msg.value;\r\n    }\r\n}",
  "sourcePath": "D:/workspace/react/betterfund-crowdfunding-in-blockchain/src/contracts/Charity.sol",
  "compiler": {
    "name": "solc",
    "version": "0.5.0+commit.1d4f565a.Emscripten.clang"
  },
  "schemaVersion": "3.0.2",
  "updatedAt": "2022-04-21T08:24:43.154Z",
  "devdoc": {
    "methods": {}
  },
  "userdoc": {
    "methods": {}
  }
}